{
  "contractName": "LiquidityContract",
  "abi": [
    {
      "inputs": [],
      "stateMutability": "nonpayable",
      "type": "constructor"
    },
    {
      "inputs": [],
      "name": "admin",
      "outputs": [
        {
          "internalType": "address",
          "name": "",
          "type": "address"
        }
      ],
      "stateMutability": "view",
      "type": "function",
      "constant": true
    },
    {
      "inputs": [],
      "name": "reserveContract",
      "outputs": [
        {
          "internalType": "address",
          "name": "",
          "type": "address"
        }
      ],
      "stateMutability": "view",
      "type": "function",
      "constant": true
    },
    {
      "stateMutability": "payable",
      "type": "receive",
      "payable": true
    },
    {
      "inputs": [
        {
          "internalType": "address",
          "name": "_reserveContract",
          "type": "address"
        }
      ],
      "name": "setReserveContract",
      "outputs": [],
      "stateMutability": "nonpayable",
      "type": "function"
    }
  ],
  "bytecode": "0x608060405234801561001057600080fd5b5033600160006101000a81548173ffffffffffffffffffffffffffffffffffffffff021916908373ffffffffffffffffffffffffffffffffffffffff1602179055506104c5806100616000396000f3fe6080604052600436106100385760003560e01c8063527a52c81461012a578063a7f43acd14610153578063f851a4401461017e57610125565b366101255760008054906101000a900473ffffffffffffffffffffffffffffffffffffffff1673ffffffffffffffffffffffffffffffffffffffff163373ffffffffffffffffffffffffffffffffffffffff1614806100e45750600160009054906101000a900473ffffffffffffffffffffffffffffffffffffffff1673ffffffffffffffffffffffffffffffffffffffff163373ffffffffffffffffffffffffffffffffffffffff16145b610123576040517f08c379a000000000000000000000000000000000000000000000000000000000815260040161011a90610349565b60405180910390fd5b005b600080fd5b34801561013657600080fd5b50610151600480360381019061014c91906103cc565b6101a9565b005b34801561015f57600080fd5b5061016861027c565b6040516101759190610408565b60405180910390f35b34801561018a57600080fd5b506101936102a0565b6040516101a09190610408565b60405180910390f35b3373ffffffffffffffffffffffffffffffffffffffff16600160009054906101000a900473ffffffffffffffffffffffffffffffffffffffff1673ffffffffffffffffffffffffffffffffffffffff1614610239576040517f08c379a00000000000000000000000000000000000000000000000000000000081526004016102309061046f565b60405180910390fd5b806000806101000a81548173ffffffffffffffffffffffffffffffffffffffff021916908373ffffffffffffffffffffffffffffffffffffffff16021790555050565b60008054906101000a900473ffffffffffffffffffffffffffffffffffffffff1681565b600160009054906101000a900473ffffffffffffffffffffffffffffffffffffffff1681565b600082825260208201905092915050565b7f4f6e6c79205265736572766520436f6e74726163742f41646d696e2063616e2060008201527f63616c6c20746869732066756e6374696f6e0000000000000000000000000000602082015250565b60006103336032836102c6565b915061033e826102d7565b604082019050919050565b6000602082019050818103600083015261036281610326565b9050919050565b600080fd5b600073ffffffffffffffffffffffffffffffffffffffff82169050919050565b60006103998261036e565b9050919050565b6103a98161038e565b81146103b457600080fd5b50565b6000813590506103c6816103a0565b92915050565b6000602082840312156103e2576103e1610369565b5b60006103f0848285016103b7565b91505092915050565b6104028161038e565b82525050565b600060208201905061041d60008301846103f9565b92915050565b7f4f6e6c792061646d696e00000000000000000000000000000000000000000000600082015250565b6000610459600a836102c6565b915061046482610423565b602082019050919050565b600060208201905081810360008301526104888161044c565b905091905056fea264697066735822122061e1827edc0aaa236248ea7aa618703090b96c1332c9a97da789a473f1ee7c8864736f6c634300080a0033",
  "immutableReferences": {},
  "source": "pragma solidity ^0.8.0;\r\nimport '@openzeppelin/contracts/utils/math/SafeMath.sol';\r\nimport '@openzeppelin/contracts/utils/Address.sol';\r\nimport '@openzeppelin/contracts/token/ERC20/IERC20.sol';\r\n\r\n\r\ncontract LiquidityContract{\r\n    using SafeMath for uint256;\r\n    using Address for address;\r\n    address public reserveContract;\r\n    address public admin;\r\n\r\n    constructor() public{\r\n        admin = msg.sender;\r\n    }\r\n\r\n    function setReserveContract(address _reserveContract) external{\r\n        require(admin == msg.sender, \"Only admin\");\r\n        reserveContract = _reserveContract;\r\n    }\r\n\r\n    receive() external payable{\r\n        require(\r\n            msg.sender == reserveContract || msg.sender == admin, \r\n            \"Only Reserve Contract/Admin can call this function\"\r\n        );\r\n    }\r\n}",
  "sourcePath": "C:\\Users\\Shivam Agrawal\\Desktop\\Ropsten\\contracts\\LiquidityContract.sol",
  "compiler": {
    "name": "solc",
    "version": "0.8.10+commit.fc410830.Emscripten.clang"
  },
  "schemaVersion": "3.4.4",
  "updatedAt": "2022-01-07T11:44:48.957Z",
  "networkType": "ethereum",
  "devdoc": {
    "kind": "dev",
    "methods": {},
    "version": 1
  },
  "userdoc": {
    "kind": "user",
    "methods": {},
    "version": 1
  }
}