{
  "contractName": "ReserveContract",
  "abi": [
    {
      "inputs": [
        {
          "internalType": "address payable",
          "name": "_stakingContract",
          "type": "address"
        },
        {
          "internalType": "address",
          "name": "_mindpayToken",
          "type": "address"
        },
        {
          "internalType": "address payable",
          "name": "_liquidityContract",
          "type": "address"
        }
      ],
      "stateMutability": "nonpayable",
      "type": "constructor"
    },
    {
      "inputs": [
        {
          "internalType": "uint256",
          "name": "",
          "type": "uint256"
        }
      ],
      "name": "investment",
      "outputs": [
        {
          "internalType": "uint256",
          "name": "id",
          "type": "uint256"
        },
        {
          "internalType": "uint256",
          "name": "etherAmount",
          "type": "uint256"
        },
        {
          "internalType": "uint256",
          "name": "correspondingTokenAmount",
          "type": "uint256"
        },
        {
          "internalType": "address",
          "name": "investor",
          "type": "address"
        },
        {
          "internalType": "uint256",
          "name": "lockedPeriod",
          "type": "uint256"
        },
        {
          "internalType": "bool",
          "name": "cancelled",
          "type": "bool"
        },
        {
          "internalType": "bool",
          "name": "staked",
          "type": "bool"
        }
      ],
      "stateMutability": "view",
      "type": "function",
      "constant": true
    },
    {
      "inputs": [],
      "name": "lockPeriod",
      "outputs": [
        {
          "internalType": "uint256",
          "name": "",
          "type": "uint256"
        }
      ],
      "stateMutability": "view",
      "type": "function",
      "constant": true
    },
    {
      "inputs": [
        {
          "internalType": "address",
          "name": "",
          "type": "address"
        }
      ],
      "name": "reserveEtherBalanceOf",
      "outputs": [
        {
          "internalType": "uint256",
          "name": "",
          "type": "uint256"
        }
      ],
      "stateMutability": "view",
      "type": "function",
      "constant": true
    },
    {
      "inputs": [
        {
          "internalType": "address",
          "name": "",
          "type": "address"
        }
      ],
      "name": "reserveTokenBalanceOf",
      "outputs": [
        {
          "internalType": "uint256",
          "name": "",
          "type": "uint256"
        }
      ],
      "stateMutability": "view",
      "type": "function",
      "constant": true
    },
    {
      "inputs": [
        {
          "internalType": "address",
          "name": "",
          "type": "address"
        }
      ],
      "name": "stakedTokenBalanceOf",
      "outputs": [
        {
          "internalType": "uint256",
          "name": "",
          "type": "uint256"
        }
      ],
      "stateMutability": "view",
      "type": "function",
      "constant": true
    },
    {
      "stateMutability": "payable",
      "type": "receive",
      "payable": true
    },
    {
      "inputs": [
        {
          "internalType": "uint256",
          "name": "id",
          "type": "uint256"
        }
      ],
      "name": "cancelInvestment",
      "outputs": [],
      "stateMutability": "nonpayable",
      "type": "function"
    },
    {
      "inputs": [
        {
          "internalType": "uint256",
          "name": "id",
          "type": "uint256"
        }
      ],
      "name": "stakeInvestment",
      "outputs": [],
      "stateMutability": "nonpayable",
      "type": "function"
    },
    {
      "inputs": [
        {
          "internalType": "uint256",
          "name": "id",
          "type": "uint256"
        }
      ],
      "name": "withdrawFromStake",
      "outputs": [],
      "stateMutability": "nonpayable",
      "type": "function"
    },
    {
      "inputs": [],
      "name": "addressOfStakingContract",
      "outputs": [
        {
          "internalType": "address",
          "name": "",
          "type": "address"
        }
      ],
      "stateMutability": "view",
      "type": "function",
      "constant": true
    },
    {
      "inputs": [],
      "name": "addressOfLiquidityContract",
      "outputs": [
        {
          "internalType": "address",
          "name": "",
          "type": "address"
        }
      ],
      "stateMutability": "view",
      "type": "function",
      "constant": true
    },
    {
      "inputs": [],
      "name": "addressOfMindpayToken",
      "outputs": [
        {
          "internalType": "address",
          "name": "",
          "type": "address"
        }
      ],
      "stateMutability": "view",
      "type": "function",
      "constant": true
    },
    {
      "inputs": [
        {
          "internalType": "uint256",
          "name": "id",
          "type": "uint256"
        }
      ],
      "name": "timeToUnlock",
      "outputs": [
        {
          "internalType": "uint256",
          "name": "",
          "type": "uint256"
        }
      ],
      "stateMutability": "view",
      "type": "function",
      "constant": true
    },
    {
      "inputs": [
        {
          "internalType": "address",
          "name": "investor",
          "type": "address"
        }
      ],
      "name": "investmentsOf",
      "outputs": [
        {
          "internalType": "uint256[]",
          "name": "",
          "type": "uint256[]"
        }
      ],
      "stateMutability": "view",
      "type": "function",
      "constant": true
    },
    {
      "inputs": [
        {
          "internalType": "address",
          "name": "_admin",
          "type": "address"
        }
      ],
      "name": "changeAdmin",
      "outputs": [],
      "stateMutability": "nonpayable",
      "type": "function"
    },
    {
      "inputs": [
        {
          "internalType": "uint256",
          "name": "newPeriod",
          "type": "uint256"
        }
      ],
      "name": "changeLockPeriod",
      "outputs": [],
      "stateMutability": "nonpayable",
      "type": "function"
    }
  ],
  "bytecode": "0x60806040526103846005553480156200001757600080fd5b50604051620025a4380380620025a483398181016040528101906200003d9190620001f9565b33600760006101000a81548173ffffffffffffffffffffffffffffffffffffffff021916908373ffffffffffffffffffffffffffffffffffffffff16021790555082600860006101000a81548173ffffffffffffffffffffffffffffffffffffffff021916908373ffffffffffffffffffffffffffffffffffffffff16021790555081600960006101000a81548173ffffffffffffffffffffffffffffffffffffffff021916908373ffffffffffffffffffffffffffffffffffffffff16021790555080600a60006101000a81548173ffffffffffffffffffffffffffffffffffffffff021916908373ffffffffffffffffffffffffffffffffffffffff16021790555050505062000255565b600080fd5b600073ffffffffffffffffffffffffffffffffffffffff82169050919050565b60006200017c826200014f565b9050919050565b6200018e816200016f565b81146200019a57600080fd5b50565b600081519050620001ae8162000183565b92915050565b6000620001c1826200014f565b9050919050565b620001d381620001b4565b8114620001df57600080fd5b50565b600081519050620001f381620001c8565b92915050565b6000806000606084860312156200021557620002146200014a565b5b600062000225868287016200019d565b93505060206200023886828701620001e2565b92505060406200024b868287016200019d565b9150509250925092565b61233f80620002656000396000f3fe6080604052600436106100ec5760003560e01c8063a7dc54fb1161008a578063cdf3052011610059578063cdf3052014610411578063e37280061461043c578063e4d4c3c014610465578063e6553730146104a8576101f3565b8063a7dc54fb14610357578063b65aaef214610394578063c25cf1d0146103bf578063c5e74192146103e8576101f3565b806362520b1a116100c657806362520b1a1461028b57806365696aeb146102c85780637614c519146102f15780638f2839701461032e576101f3565b806304d1d071146101f857806333cd3383146102235780633fd8b02f14610260576101f3565b366101f3576000600a60009054906101000a900473ffffffffffffffffffffffffffffffffffffffff1673ffffffffffffffffffffffffffffffffffffffff166101546103e86101466064346104e590919063ffffffff16565b6104fb90919063ffffffff16565b60405161016090611a71565b60006040518083038185875af1925050503d806000811461019d576040519150601f19603f3d011682016040523d82523d6000602084013e6101a2565b606091505b50509050806101e6576040517f08c379a00000000000000000000000000000000000000000000000000000000081526004016101dd90611ae3565b60405180910390fd5b6101f03334610511565b50005b600080fd5b34801561020457600080fd5b5061020d6107b4565b60405161021a9190611b44565b60405180910390f35b34801561022f57600080fd5b5061024a60048036038101906102459190611b90565b6107de565b6040516102579190611c85565b60405180910390f35b34801561026c57600080fd5b50610275610875565b6040516102829190611cb6565b60405180910390f35b34801561029757600080fd5b506102b260048036038101906102ad9190611b90565b61087b565b6040516102bf9190611cb6565b60405180910390f35b3480156102d457600080fd5b506102ef60048036038101906102ea9190611cfd565b610893565b005b3480156102fd57600080fd5b5061031860048036038101906103139190611b90565b610cd7565b6040516103259190611cb6565b60405180910390f35b34801561033a57600080fd5b5061035560048036038101906103509190611b90565b610cef565b005b34801561036357600080fd5b5061037e60048036038101906103799190611b90565b610dc3565b60405161038b9190611cb6565b60405180910390f35b3480156103a057600080fd5b506103a9610ddb565b6040516103b69190611b44565b60405180910390f35b3480156103cb57600080fd5b506103e660048036038101906103e19190611cfd565b610e05565b005b3480156103f457600080fd5b5061040f600480360381019061040a9190611cfd565b610e9f565b005b34801561041d57600080fd5b50610426610fb8565b6040516104339190611b44565b60405180910390f35b34801561044857600080fd5b50610463600480360381019061045e9190611cfd565b610fe2565b005b34801561047157600080fd5b5061048c60048036038101906104879190611cfd565b61162c565b60405161049f9796959493929190611d45565b60405180910390f35b3480156104b457600080fd5b506104cf60048036038101906104ca9190611cfd565b6116a8565b6040516104dc9190611cb6565b60405180910390f35b600081836104f39190611de3565b905092915050565b600081836105099190611e6c565b905092915050565b6040518060e00160405280600654815260200161054d6103e861053f610384866104e590919063ffffffff16565b6104fb90919063ffffffff16565b815260200161055b83611700565b81526020018373ffffffffffffffffffffffffffffffffffffffff1681526020016005544261058a9190611e9d565b815260200160001515815260200160001515815250600080600654815260200190815260200160002060008201518160000155602082015181600101556040820151816002015560608201518160030160006101000a81548173ffffffffffffffffffffffffffffffffffffffff021916908373ffffffffffffffffffffffffffffffffffffffff1602179055506080820151816004015560a08201518160050160006101000a81548160ff02191690831515021790555060c08201518160050160016101000a81548160ff021916908315150217905550905050600160008373ffffffffffffffffffffffffffffffffffffffff1673ffffffffffffffffffffffffffffffffffffffff16815260200190815260200160002060065490806001815401808255809150506001900390600052602060002001600090919091909150556107476106f96103e86106eb610384856104e590919063ffffffff16565b6104fb90919063ffffffff16565b600360008573ffffffffffffffffffffffffffffffffffffffff1673ffffffffffffffffffffffffffffffffffffffff1681526020019081526020016000205461178a90919063ffffffff16565b600360008473ffffffffffffffffffffffffffffffffffffffff1673ffffffffffffffffffffffffffffffffffffffff1681526020019081526020016000208190555061079482826117a0565b6107aa600160065461178a90919063ffffffff16565b6006819055505050565b6000600860009054906101000a900473ffffffffffffffffffffffffffffffffffffffff16905090565b6060600160008373ffffffffffffffffffffffffffffffffffffffff1673ffffffffffffffffffffffffffffffffffffffff16815260200190815260200160002080548060200260200160405190810160405280929190818152602001828054801561086957602002820191906000526020600020905b815481526020019060010190808311610855575b50505050509050919050565b60055481565b60026020528060005260406000206000915090505481565b806000808281526020019081526020016000206004015442116108eb576040517f08c379a00000000000000000000000000000000000000000000000000000000081526004016108e290611f3f565b60405180910390fd5b3373ffffffffffffffffffffffffffffffffffffffff1660008084815260200190815260200160002060030160009054906101000a900473ffffffffffffffffffffffffffffffffffffffff1673ffffffffffffffffffffffffffffffffffffffff161461098e576040517f08c379a000000000000000000000000000000000000000000000000000000000815260040161098590611fab565b60405180910390fd5b6000151560008084815260200190815260200160002060050160009054906101000a900460ff161515146109f7576040517f08c379a00000000000000000000000000000000000000000000000000000000081526004016109ee90612017565b60405180910390fd5b6000151560008084815260200190815260200160002060050160019054906101000a900460ff16151514610a60576040517f08c379a0000000000000000000000000000000000000000000000000000000008152600401610a5790612083565b60405180910390fd5b600160008084815260200190815260200160002060050160006101000a81548160ff0219169083151502179055506000806000848152602001908152602001600020600101549050610afa81600360003373ffffffffffffffffffffffffffffffffffffffff1673ffffffffffffffffffffffffffffffffffffffff168152602001908152602001600020546118d890919063ffffffff16565b600360003373ffffffffffffffffffffffffffffffffffffffff1673ffffffffffffffffffffffffffffffffffffffff16815260200190815260200160002081905550610ba460008085815260200190815260200160002060020154600260003373ffffffffffffffffffffffffffffffffffffffff1673ffffffffffffffffffffffffffffffffffffffff168152602001908152602001600020546118d890919063ffffffff16565b600260003373ffffffffffffffffffffffffffffffffffffffff1673ffffffffffffffffffffffffffffffffffffffff16815260200190815260200160002081905550600960009054906101000a900473ffffffffffffffffffffffffffffffffffffffff1673ffffffffffffffffffffffffffffffffffffffff16639dc29fac30600080878152602001908152602001600020600201546040518363ffffffff1660e01b8152600401610c599291906120a3565b600060405180830381600087803b158015610c7357600080fd5b505af1158015610c87573d6000803e3d6000fd5b505050503373ffffffffffffffffffffffffffffffffffffffff166108fc829081150290604051600060405180830381858888f19350505050158015610cd1573d6000803e3d6000fd5b50505050565b60046020528060005260406000206000915090505481565b600760009054906101000a900473ffffffffffffffffffffffffffffffffffffffff1673ffffffffffffffffffffffffffffffffffffffff163373ffffffffffffffffffffffffffffffffffffffff1614610d7f576040517f08c379a0000000000000000000000000000000000000000000000000000000008152600401610d7690612118565b60405180910390fd5b80600760006101000a81548173ffffffffffffffffffffffffffffffffffffffff021916908373ffffffffffffffffffffffffffffffffffffffff16021790555050565b60036020528060005260406000206000915090505481565b6000600a60009054906101000a900473ffffffffffffffffffffffffffffffffffffffff16905090565b600760009054906101000a900473ffffffffffffffffffffffffffffffffffffffff1673ffffffffffffffffffffffffffffffffffffffff163373ffffffffffffffffffffffffffffffffffffffff1614610e95576040517f08c379a0000000000000000000000000000000000000000000000000000000008152600401610e8c90612118565b60405180910390fd5b8060058190555050565b3373ffffffffffffffffffffffffffffffffffffffff1660008083815260200190815260200160002060030160009054906101000a900473ffffffffffffffffffffffffffffffffffffffff1673ffffffffffffffffffffffffffffffffffffffff1614610f42576040517f08c379a0000000000000000000000000000000000000000000000000000000008152600401610f3990612184565b60405180910390fd5b6001151560008083815260200190815260200160002060050160019054906101000a900460ff16151514610fab576040517f08c379a0000000000000000000000000000000000000000000000000000000008152600401610fa2906121f0565b60405180910390fd5b610fb533826118ee565b50565b6000600960009054906101000a900473ffffffffffffffffffffffffffffffffffffffff16905090565b8060008082815260200190815260200160002060040154421161103a576040517f08c379a000000000000000000000000000000000000000000000000000000000815260040161103190611f3f565b60405180910390fd5b3373ffffffffffffffffffffffffffffffffffffffff1660008084815260200190815260200160002060030160009054906101000a900473ffffffffffffffffffffffffffffffffffffffff1673ffffffffffffffffffffffffffffffffffffffff16146110dd576040517f08c379a00000000000000000000000000000000000000000000000000000000081526004016110d490611fab565b60405180910390fd5b6000151560008084815260200190815260200160002060050160019054906101000a900460ff16151514611146576040517f08c379a000000000000000000000000000000000000000000000000000000000815260040161113d90612083565b60405180910390fd5b6000151560008084815260200190815260200160002060050160009054906101000a900460ff161515146111af576040517f08c379a00000000000000000000000000000000000000000000000000000000081526004016111a690612017565b60405180910390fd5b600160008084815260200190815260200160002060050160016101000a81548160ff0219169083151502179055506000806000848152602001908152602001600020600101549050600080600085815260200190815260200160002060020154905061126382600360003373ffffffffffffffffffffffffffffffffffffffff1673ffffffffffffffffffffffffffffffffffffffff168152602001908152602001600020546118d890919063ffffffff16565b600360003373ffffffffffffffffffffffffffffffffffffffff1673ffffffffffffffffffffffffffffffffffffffff168152602001908152602001600020819055506112f881600260003373ffffffffffffffffffffffffffffffffffffffff1673ffffffffffffffffffffffffffffffffffffffff168152602001908152602001600020546118d890919063ffffffff16565b600260003373ffffffffffffffffffffffffffffffffffffffff1673ffffffffffffffffffffffffffffffffffffffff168152602001908152602001600020819055506000600a60009054906101000a900473ffffffffffffffffffffffffffffffffffffffff1673ffffffffffffffffffffffffffffffffffffffff168360405161138390611a71565b60006040518083038185875af1925050503d80600081146113c0576040519150601f19603f3d011682016040523d82523d6000602084013e6113c5565b606091505b5050905080611409576040517f08c379a00000000000000000000000000000000000000000000000000000000081526004016114009061225c565b60405180910390fd5b600960009054906101000a900473ffffffffffffffffffffffffffffffffffffffff1673ffffffffffffffffffffffffffffffffffffffff1663095ea7b3600860009054906101000a900473ffffffffffffffffffffffffffffffffffffffff16846040518363ffffffff1660e01b81526004016114889291906120a3565b6020604051808303816000875af11580156114a7573d6000803e3d6000fd5b505050506040513d601f19601f820116820180604052508101906114cb91906122a8565b50600860009054906101000a900473ffffffffffffffffffffffffffffffffffffffff1673ffffffffffffffffffffffffffffffffffffffff1663338b5dea60008088815260200190815260200160002060030160009054906101000a900473ffffffffffffffffffffffffffffffffffffffff16846040518363ffffffff1660e01b815260040161155e9291906120a3565b600060405180830381600087803b15801561157857600080fd5b505af115801561158c573d6000803e3d6000fd5b505050506115e282600460003373ffffffffffffffffffffffffffffffffffffffff1673ffffffffffffffffffffffffffffffffffffffff1681526020019081526020016000205461178a90919063ffffffff16565b600460003373ffffffffffffffffffffffffffffffffffffffff1673ffffffffffffffffffffffffffffffffffffffff168152602001908152602001600020819055505050505050565b60006020528060005260406000206000915090508060000154908060010154908060020154908060030160009054906101000a900473ffffffffffffffffffffffffffffffffffffffff16908060040154908060050160009054906101000a900460ff16908060050160019054906101000a900460ff16905087565b6000806000838152602001908152602001600020600401544210156116f6576116ef42600080858152602001908152602001600020600401546118d890919063ffffffff16565b90506116fb565b600090505b919050565b6000670de0b6b3a7640000821161172d576117266103e8836104e590919063ffffffff16565b9050611785565b670de0b6b3a76400008211801561174c5750674563918244f400008211155b1561176d5761176661044c836104e590919063ffffffff16565b9050611785565b6117826104b0836104e590919063ffffffff16565b90505b919050565b600081836117989190611e9d565b905092915050565b600960009054906101000a900473ffffffffffffffffffffffffffffffffffffffff1673ffffffffffffffffffffffffffffffffffffffff166340c10f19306117e884611700565b6040518363ffffffff1660e01b81526004016118059291906120a3565b600060405180830381600087803b15801561181f57600080fd5b505af1158015611833573d6000803e3d6000fd5b5050505061189161184382611700565b600260008573ffffffffffffffffffffffffffffffffffffffff1673ffffffffffffffffffffffffffffffffffffffff1681526020019081526020016000205461178a90919063ffffffff16565b600260008473ffffffffffffffffffffffffffffffffffffffff1673ffffffffffffffffffffffffffffffffffffffff168152602001908152602001600020819055505050565b600081836118e691906122d5565b905092915050565b61195560008083815260200190815260200160002060020154600460008573ffffffffffffffffffffffffffffffffffffffff1673ffffffffffffffffffffffffffffffffffffffff168152602001908152602001600020546118d890919063ffffffff16565b600460008473ffffffffffffffffffffffffffffffffffffffff1673ffffffffffffffffffffffffffffffffffffffff16815260200190815260200160002081905550600860009054906101000a900473ffffffffffffffffffffffffffffffffffffffff1673ffffffffffffffffffffffffffffffffffffffff1663f3fef3a383600080858152602001908152602001600020600201546040518363ffffffff1660e01b8152600401611a0a9291906120a3565b600060405180830381600087803b158015611a2457600080fd5b505af1158015611a38573d6000803e3d6000fd5b505050505050565b600081905092915050565b50565b6000611a5b600083611a40565b9150611a6682611a4b565b600082019050919050565b6000611a7c82611a4e565b9150819050919050565b600082825260208201905092915050565b7f4572726f723a204c697175696469747920636f6e747261637400000000000000600082015250565b6000611acd601983611a86565b9150611ad882611a97565b602082019050919050565b60006020820190508181036000830152611afc81611ac0565b9050919050565b600073ffffffffffffffffffffffffffffffffffffffff82169050919050565b6000611b2e82611b03565b9050919050565b611b3e81611b23565b82525050565b6000602082019050611b596000830184611b35565b92915050565b600080fd5b611b6d81611b23565b8114611b7857600080fd5b50565b600081359050611b8a81611b64565b92915050565b600060208284031215611ba657611ba5611b5f565b5b6000611bb484828501611b7b565b91505092915050565b600081519050919050565b600082825260208201905092915050565b6000819050602082019050919050565b6000819050919050565b611bfc81611be9565b82525050565b6000611c0e8383611bf3565b60208301905092915050565b6000602082019050919050565b6000611c3282611bbd565b611c3c8185611bc8565b9350611c4783611bd9565b8060005b83811015611c78578151611c5f8882611c02565b9750611c6a83611c1a565b925050600181019050611c4b565b5085935050505092915050565b60006020820190508181036000830152611c9f8184611c27565b905092915050565b611cb081611be9565b82525050565b6000602082019050611ccb6000830184611ca7565b92915050565b611cda81611be9565b8114611ce557600080fd5b50565b600081359050611cf781611cd1565b92915050565b600060208284031215611d1357611d12611b5f565b5b6000611d2184828501611ce8565b91505092915050565b60008115159050919050565b611d3f81611d2a565b82525050565b600060e082019050611d5a600083018a611ca7565b611d676020830189611ca7565b611d746040830188611ca7565b611d816060830187611b35565b611d8e6080830186611ca7565b611d9b60a0830185611d36565b611da860c0830184611d36565b98975050505050505050565b7f4e487b7100000000000000000000000000000000000000000000000000000000600052601160045260246000fd5b6000611dee82611be9565b9150611df983611be9565b9250817fffffffffffffffffffffffffffffffffffffffffffffffffffffffffffffffff0483118215151615611e3257611e31611db4565b5b828202905092915050565b7f4e487b7100000000000000000000000000000000000000000000000000000000600052601260045260246000fd5b6000611e7782611be9565b9150611e8283611be9565b925082611e9257611e91611e3d565b5b828204905092915050565b6000611ea882611be9565b9150611eb383611be9565b9250827fffffffffffffffffffffffffffffffffffffffffffffffffffffffffffffffff03821115611ee857611ee7611db4565b5b828201905092915050565b7f46756e6473206c6f636b65640000000000000000000000000000000000000000600082015250565b6000611f29600c83611a86565b9150611f3482611ef3565b602082019050919050565b60006020820190508181036000830152611f5881611f1c565b9050919050565b7f54686973206973206e6f7420796f757220696e766573746d656e740000000000600082015250565b6000611f95601b83611a86565b9150611fa082611f5f565b602082019050919050565b60006020820190508181036000830152611fc481611f88565b9050919050565b7f496e766573746d656e7420616c72656164792063616e63656c6c656400000000600082015250565b6000612001601c83611a86565b915061200c82611fcb565b602082019050919050565b6000602082019050818103600083015261203081611ff4565b9050919050565b7f496e766573746d656e7420616c7265616479207374616b656400000000000000600082015250565b600061206d601983611a86565b915061207882612037565b602082019050919050565b6000602082019050818103600083015261209c81612060565b9050919050565b60006040820190506120b86000830185611b35565b6120c56020830184611ca7565b9392505050565b7f4f6e6c792061646d696e00000000000000000000000000000000000000000000600082015250565b6000612102600a83611a86565b915061210d826120cc565b602082019050919050565b60006020820190508181036000830152612131816120f5565b9050919050565b7f4e6f7420796f757220696e766573746d656e7400000000000000000000000000600082015250565b600061216e601383611a86565b915061217982612138565b602082019050919050565b6000602082019050818103600083015261219d81612161565b9050919050565b7f4e6f74207374616b656400000000000000000000000000000000000000000000600082015250565b60006121da600a83611a86565b91506121e5826121a4565b602082019050919050565b60006020820190508181036000830152612209816121cd565b9050919050565b7f4572726f723a205374616b696e6720696e766573746d656e7400000000000000600082015250565b6000612246601983611a86565b915061225182612210565b602082019050919050565b6000602082019050818103600083015261227581612239565b9050919050565b61228581611d2a565b811461229057600080fd5b50565b6000815190506122a28161227c565b92915050565b6000602082840312156122be576122bd611b5f565b5b60006122cc84828501612293565b91505092915050565b60006122e082611be9565b91506122eb83611be9565b9250828210156122fe576122fd611db4565b5b82820390509291505056fea2646970667358221220aa29c01b05a3e6429b7d93fa4e38e068624fc2adffab9beba9a062b113f1739764736f6c634300080a0033",
  "immutableReferences": {},
  "source": "pragma solidity ^0.8.0;\r\nimport '@openzeppelin/contracts/utils/math/SafeMath.sol';\r\nimport '@openzeppelin/contracts/utils/Address.sol';\r\nimport './StakingContract.sol';\r\nimport './LiquidityContract.sol';\r\nimport './Mindpay.sol';\r\n\r\ncontract ReserveContract{\r\n    using SafeMath for uint256;\r\n    using Address for address;\r\n\r\n    struct Investments{\r\n        uint256 id;\r\n        uint256 etherAmount;\r\n        uint256 correspondingTokenAmount;\r\n        address investor;\r\n        uint256 lockedPeriod;\r\n        bool cancelled;\r\n        bool staked;\r\n    }\r\n    mapping(uint256 => Investments) public investment;\r\n    mapping(address => uint256[]) investmentIDsOf;\r\n    mapping(address => uint256) public reserveTokenBalanceOf;\r\n    mapping(address => uint256) public reserveEtherBalanceOf;\r\n    mapping(address => uint256) public stakedTokenBalanceOf;\r\n\r\n    uint256 public lockPeriod = 15 minutes;\r\n    uint256 nextInvestmentId;\r\n    uint256 constant denominator = 1000;\r\n    address admin;\r\n    StakingContract stakingContract;\r\n    Mindpay mindpayToken;\r\n    LiquidityContract liquidityContract;\r\n    constructor(\r\n        address payable _stakingContract, \r\n        address _mindpayToken, \r\n        address payable _liquidityContract)\r\n        {\r\n            admin =  msg.sender;\r\n            stakingContract = StakingContract(_stakingContract);\r\n            mindpayToken = Mindpay(_mindpayToken);\r\n            liquidityContract = LiquidityContract(_liquidityContract);\r\n        }\r\n        receive() external payable{\r\n        (bool sent, ) = address(liquidityContract)\r\n                        .call{value: (msg.value.mul(100)).div(denominator)}(\"\");\r\n        require(sent, \"Error: Liquidity contract\");\r\n        invest(msg.sender,msg.value);\r\n    }\r\n\r\n    function mint(address depositer, uint256 etherValue) internal{\r\n        mindpayToken.mint(address(this), tokensToMint(etherValue));\r\n        reserveTokenBalanceOf[depositer] = reserveTokenBalanceOf[depositer].add(tokensToMint(etherValue));\r\n    }\r\n\r\n    function tokensToMint(uint256 etherValue) internal pure returns(uint){\r\n        if(etherValue <= 1 ether){\r\n            return etherValue.mul(1000);\r\n        }\r\n        else if(etherValue>1 ether && etherValue <= 5 ether){\r\n            return etherValue.mul(1100);\r\n        }\r\n        return etherValue.mul(1200);\r\n    }\r\n\r\n    function invest(address investor, uint256 etherValue) internal{\r\n        investment[nextInvestmentId] = Investments(\r\n                nextInvestmentId,\r\n                (etherValue.mul(900)).div(denominator),\r\n                tokensToMint(etherValue),\r\n                investor,\r\n                block.timestamp + lockPeriod,\r\n                false,\r\n                false\r\n            );\r\n        investmentIDsOf[investor].push(nextInvestmentId);\r\n\r\n        reserveEtherBalanceOf[investor] = \r\n            reserveEtherBalanceOf[investor].add((etherValue.mul(900))\r\n                                            .div(denominator));\r\n        mint(investor, etherValue);\r\n        nextInvestmentId = nextInvestmentId.add(1);        \r\n    }\r\n\r\n    function cancelInvestment(uint256 id) external isUnlocked(id){\r\n        require(investment[id].investor == msg.sender, \"This is not your investment\");\r\n        require(investment[id].cancelled == false, \"Investment already cancelled\");\r\n        require(investment[id].staked == false, \"Investment already staked\");\r\n        investment[id].cancelled = true;\r\n        uint256 etherToReturn = investment[id].etherAmount;\r\n        reserveEtherBalanceOf[msg.sender] = reserveEtherBalanceOf[msg.sender].sub(etherToReturn);\r\n        reserveTokenBalanceOf[msg.sender] = reserveTokenBalanceOf[msg.sender]\r\n                                    .sub(investment[id].correspondingTokenAmount);\r\n\r\n        mindpayToken.burn(address(this), investment[id].correspondingTokenAmount);\r\n        \r\n        payable(msg.sender).transfer(etherToReturn);\r\n    }   \r\n\r\n    function stakeInvestment(uint id) external isUnlocked(id){\r\n        require(investment[id].investor == msg.sender, \"This is not your investment\");\r\n        require(investment[id].staked == false, \"Investment already staked\");\r\n        require(investment[id].cancelled == false, \"Investment already cancelled\");\r\n        \r\n        investment[id].staked = true;\r\n        uint256 etherAmount = investment[id].etherAmount;\r\n        uint256 tokenAmount = investment[id].correspondingTokenAmount;\r\n        \r\n        reserveEtherBalanceOf[msg.sender] = \r\n                        reserveEtherBalanceOf[msg.sender].sub(etherAmount);\r\n        reserveTokenBalanceOf[msg.sender] = \r\n                                    reserveTokenBalanceOf[msg.sender]\r\n                                    .sub(tokenAmount);\r\n        \r\n        (bool sent, ) = address(liquidityContract).call{value: etherAmount}(\"\");\r\n        require(sent, \"Error: Staking investment\");\r\n        mindpayToken.approve(address(stakingContract), tokenAmount);\r\n        stakingContract.depositToken(investment[id].investor, tokenAmount);\r\n\r\n        stakedTokenBalanceOf[msg.sender] = \r\n            stakedTokenBalanceOf[msg.sender].add(tokenAmount);\r\n        \r\n    }\r\n\r\n    function withdrawFromStake(uint256 id) external {\r\n        require(investment[id].investor == msg.sender, \"Not your investment\");\r\n        require(investment[id].staked == true, \"Not staked\");\r\n        _withdrawFromStake(msg.sender, id);\r\n    }\r\n\r\n    function _withdrawFromStake(address investor, uint256 id) private{\r\n        stakedTokenBalanceOf[investor] = stakedTokenBalanceOf[investor]\r\n                                        .sub(investment[id].correspondingTokenAmount);\r\n        stakingContract.withdraw(investor, investment[id].correspondingTokenAmount);\r\n    }\r\n\r\n\r\n    function addressOfStakingContract() public view returns(address){\r\n        return address(stakingContract);\r\n    }\r\n\r\n    function addressOfLiquidityContract() public view returns(address){\r\n        return address(liquidityContract);\r\n    }\r\n\r\n    function addressOfMindpayToken() public view returns(address){\r\n        return address(mindpayToken);\r\n    }\r\n\r\n    function timeToUnlock(uint256 id) public view returns(uint256){\r\n        if(block.timestamp < investment[id].lockedPeriod){\r\n            return (investment[id].lockedPeriod).sub(block.timestamp);\r\n        }\r\n        return 0;\r\n    }\r\n\r\n    function investmentsOf(address investor) public view returns(uint256[] memory){\r\n        return investmentIDsOf[investor];\r\n    }\r\n\r\n    function changeAdmin(address _admin) external{\r\n        require(msg.sender == admin, \"Only admin\");\r\n        admin = _admin;\r\n    }\r\n\r\n    function changeLockPeriod(uint256 newPeriod) external{\r\n        require(msg.sender == admin, \"Only admin\");\r\n        lockPeriod = newPeriod;\r\n    }\r\n\r\n\r\n    modifier isUnlocked(uint256 investmentId){\r\n        require(\r\n            block.timestamp > investment[investmentId].lockedPeriod, \r\n            \"Funds locked\"\r\n            );\r\n        _;\r\n    }\r\n}",
  "sourcePath": "C:\\Users\\Shivam Agrawal\\Desktop\\Ropsten\\contracts\\ReserveContract.sol",
  "compiler": {
    "name": "solc",
    "version": "0.8.10+commit.fc410830.Emscripten.clang"
  },
  "schemaVersion": "3.4.4",
  "updatedAt": "2022-01-07T11:44:49.043Z",
  "networkType": "ethereum",
  "devdoc": {
    "kind": "dev",
    "methods": {},
    "version": 1
  },
  "userdoc": {
    "kind": "user",
    "methods": {},
    "version": 1
  }
}