{
  "contractName": "StakingContract",
  "abi": [
    {
      "inputs": [
        {
          "internalType": "address",
          "name": "_mindpayToken",
          "type": "address"
        }
      ],
      "stateMutability": "nonpayable",
      "type": "constructor"
    },
    {
      "stateMutability": "payable",
      "type": "receive",
      "payable": true
    },
    {
      "inputs": [
        {
          "internalType": "address",
          "name": "_reserveContract",
          "type": "address"
        }
      ],
      "name": "setReserveContract",
      "outputs": [],
      "stateMutability": "nonpayable",
      "type": "function"
    },
    {
      "inputs": [
        {
          "internalType": "address",
          "name": "depositer",
          "type": "address"
        },
        {
          "internalType": "uint256",
          "name": "amount",
          "type": "uint256"
        }
      ],
      "name": "depositToken",
      "outputs": [],
      "stateMutability": "nonpayable",
      "type": "function"
    },
    {
      "inputs": [
        {
          "internalType": "address",
          "name": "investor",
          "type": "address"
        },
        {
          "internalType": "uint256",
          "name": "amount",
          "type": "uint256"
        }
      ],
      "name": "withdraw",
      "outputs": [],
      "stateMutability": "nonpayable",
      "type": "function"
    }
  ],
  "bytecode": "0x608060405234801561001057600080fd5b50604051610a90380380610a908339818101604052810190610032919061011d565b80600160006101000a81548173ffffffffffffffffffffffffffffffffffffffff021916908373ffffffffffffffffffffffffffffffffffffffff16021790555033600260006101000a81548173ffffffffffffffffffffffffffffffffffffffff021916908373ffffffffffffffffffffffffffffffffffffffff1602179055505061014a565b600080fd5b600073ffffffffffffffffffffffffffffffffffffffff82169050919050565b60006100ea826100bf565b9050919050565b6100fa816100df565b811461010557600080fd5b50565b600081519050610117816100f1565b92915050565b600060208284031215610133576101326100ba565b5b600061014184828501610108565b91505092915050565b610937806101596000396000f3fe6080604052600436106100385760003560e01c8063338b5dea14610044578063527a52c81461006d578063f3fef3a3146100965761003f565b3661003f57005b600080fd5b34801561005057600080fd5b5061006b600480360381019061006691906105e9565b6100bf565b005b34801561007957600080fd5b50610094600480360381019061008f9190610629565b610289565b005b3480156100a257600080fd5b506100bd60048036038101906100b891906105e9565b61035c565b005b60008054906101000a900473ffffffffffffffffffffffffffffffffffffffff1673ffffffffffffffffffffffffffffffffffffffff163373ffffffffffffffffffffffffffffffffffffffff161461014d576040517f08c379a0000000000000000000000000000000000000000000000000000000008152600401610144906106d9565b60405180910390fd5b600160009054906101000a900473ffffffffffffffffffffffffffffffffffffffff1673ffffffffffffffffffffffffffffffffffffffff166323b872dd3330846040518463ffffffff1660e01b81526004016101ac93929190610717565b6020604051808303816000875af11580156101cb573d6000803e3d6000fd5b505050506040513d601f19601f820116820180604052508101906101ef9190610786565b5061024281600360008573ffffffffffffffffffffffffffffffffffffffff1673ffffffffffffffffffffffffffffffffffffffff1681526020019081526020016000205461052490919063ffffffff16565b600360008473ffffffffffffffffffffffffffffffffffffffff1673ffffffffffffffffffffffffffffffffffffffff168152602001908152602001600020819055505050565b3373ffffffffffffffffffffffffffffffffffffffff16600260009054906101000a900473ffffffffffffffffffffffffffffffffffffffff1673ffffffffffffffffffffffffffffffffffffffff1614610319576040517f08c379a0000000000000000000000000000000000000000000000000000000008152600401610310906107ff565b60405180910390fd5b806000806101000a81548173ffffffffffffffffffffffffffffffffffffffff021916908373ffffffffffffffffffffffffffffffffffffffff16021790555050565b60008054906101000a900473ffffffffffffffffffffffffffffffffffffffff1673ffffffffffffffffffffffffffffffffffffffff163373ffffffffffffffffffffffffffffffffffffffff16146103ea576040517f08c379a00000000000000000000000000000000000000000000000000000000081526004016103e1906106d9565b60405180910390fd5b61043c81600360008573ffffffffffffffffffffffffffffffffffffffff1673ffffffffffffffffffffffffffffffffffffffff1681526020019081526020016000205461053a90919063ffffffff16565b600360008473ffffffffffffffffffffffffffffffffffffffff1673ffffffffffffffffffffffffffffffffffffffff16815260200190815260200160002081905550600160009054906101000a900473ffffffffffffffffffffffffffffffffffffffff1673ffffffffffffffffffffffffffffffffffffffff1663a9059cbb83836040518363ffffffff1660e01b81526004016104dc92919061081f565b6020604051808303816000875af11580156104fb573d6000803e3d6000fd5b505050506040513d601f19601f8201168201806040525081019061051f9190610786565b505050565b600081836105329190610877565b905092915050565b6000818361054891906108cd565b905092915050565b600080fd5b600073ffffffffffffffffffffffffffffffffffffffff82169050919050565b600061058082610555565b9050919050565b61059081610575565b811461059b57600080fd5b50565b6000813590506105ad81610587565b92915050565b6000819050919050565b6105c6816105b3565b81146105d157600080fd5b50565b6000813590506105e3816105bd565b92915050565b60008060408385031215610600576105ff610550565b5b600061060e8582860161059e565b925050602061061f858286016105d4565b9150509250929050565b60006020828403121561063f5761063e610550565b5b600061064d8482850161059e565b91505092915050565b600082825260208201905092915050565b7f4f6e6c79207265736572766520636f6e74726163742063616e2063616c6c207460008201527f6869732066756e6374696f6e0000000000000000000000000000000000000000602082015250565b60006106c3602c83610656565b91506106ce82610667565b604082019050919050565b600060208201905081810360008301526106f2816106b6565b9050919050565b61070281610575565b82525050565b610711816105b3565b82525050565b600060608201905061072c60008301866106f9565b61073960208301856106f9565b6107466040830184610708565b949350505050565b60008115159050919050565b6107638161074e565b811461076e57600080fd5b50565b6000815190506107808161075a565b92915050565b60006020828403121561079c5761079b610550565b5b60006107aa84828501610771565b91505092915050565b7f4f6e6c792061646d696e00000000000000000000000000000000000000000000600082015250565b60006107e9600a83610656565b91506107f4826107b3565b602082019050919050565b60006020820190508181036000830152610818816107dc565b9050919050565b600060408201905061083460008301856106f9565b6108416020830184610708565b9392505050565b7f4e487b7100000000000000000000000000000000000000000000000000000000600052601160045260246000fd5b6000610882826105b3565b915061088d836105b3565b9250827fffffffffffffffffffffffffffffffffffffffffffffffffffffffffffffffff038211156108c2576108c1610848565b5b828201905092915050565b60006108d8826105b3565b91506108e3836105b3565b9250828210156108f6576108f5610848565b5b82820390509291505056fea2646970667358221220f0b35da7e9b11f3fe4c8ff4f53ae8db4ac0ba3787d960829cff5075ab5d0d56b64736f6c634300080a0033",
  "immutableReferences": {},
  "source": "pragma solidity ^0.8.0;\r\nimport '@openzeppelin/contracts/utils/math/SafeMath.sol';\r\nimport '@openzeppelin/contracts/utils/Address.sol';\r\nimport '@openzeppelin/contracts/token/ERC20/IERC20.sol';\r\n\r\n\r\ncontract StakingContract{\r\n    using SafeMath for uint256;\r\n    using Address for address;\r\n    address reserveContract;\r\n    address mindpayToken;\r\n    address admin;\r\n    mapping(address => uint256) stakedTokenBalanceOf;\r\n\r\n    constructor(address _mindpayToken) public{\r\n        mindpayToken = _mindpayToken;\r\n        admin = msg.sender;\r\n    }\r\n\r\n    function setReserveContract(address _reserveContract) external{\r\n        require(admin == msg.sender, \"Only admin\");\r\n        reserveContract = _reserveContract;\r\n    }\r\n    function depositToken(address depositer, uint256 amount) external{\r\n        require(msg.sender == reserveContract, \"Only reserve contract can call this function\");\r\n        IERC20(mindpayToken).transferFrom(msg.sender, address(this), amount);\r\n        stakedTokenBalanceOf[depositer] = stakedTokenBalanceOf[depositer].add(amount);\r\n    }\r\n\r\n    function withdraw(address investor, uint amount) external{\r\n        require(msg.sender == reserveContract, \"Only reserve contract can call this function\");\r\n        stakedTokenBalanceOf[investor] = stakedTokenBalanceOf[investor].sub(amount);\r\n        IERC20(mindpayToken).transfer(investor, amount);\r\n    }\r\n\r\n    receive() external payable{}\r\n\r\n}",
  "sourcePath": "C:\\Users\\Shivam Agrawal\\Desktop\\Ropsten\\contracts\\StakingContract.sol",
  "compiler": {
    "name": "solc",
    "version": "0.8.10+commit.fc410830.Emscripten.clang"
  },
  "schemaVersion": "3.4.4",
  "updatedAt": "2022-01-07T11:44:48.923Z",
  "networkType": "ethereum",
  "devdoc": {
    "kind": "dev",
    "methods": {},
    "version": 1
  },
  "userdoc": {
    "kind": "user",
    "methods": {},
    "version": 1
  }
}